:100000000C9434000C946B000C943E000C943E0055
:100010000C943E000C943E000C943E000C943E0068
:100020000C943E000C943E000C943E000C943E0058
:100030000C943E000C943E000C943E000C943E0048
:100040000C943E000C943E000C943E000C943E0038
:100050000C943E000C943E000C943E000C943E0028
:100060000C943E000C943E0011241FBECFEFD8E04C
:10007000DEBFCDBF0E9499000C949E000C9400003E
:10008000509A519A08959BB181E098279BB92FEF20
:1000900033ED90E3215030409040E1F700C0000084
:1000A0009BB189278BB92FEF33ED80E3215030408E
:1000B0008040E1F700C0000008959BB182E08927ED
:1000C0008BB92FEF81EE94E0215080409040E1F712
:1000D00000C0000008951F920F920FB60F921124D6
:1000E0002F933F934F935F936F937F938F939F9340
:1000F000AF93BF93EF93FF930E945D00FF91EF9149
:10010000BF91AF919F918F917F916F915F914F912F
:100110003F912F910F900FBE0F901F9018955298FE
:100120005A9AE9E6F0E0808181608083E89A7894C9
:1001300008950E9440000E948F00FFCFF894FFCFE7
:00000001FF
