:100000000C9434000C9440000C943E000C943E0080
:100010000C943E000C943E000C943E000C943E0068
:100020000C943E000C943E000C943E000C943E0058
:100030000C943E000C943E000C943E000C943E0048
:100040000C943E000C943E000C943E000C943E0038
:100050000C943E000C943E000C943E000C943E0028
:100060000C943E000C943E0011241FBECFEFD8E04C
:10007000DEBFCDBF0E945D000C9468000C940000B0
:100080001F920F920FB60F9211242F938F939F936D
:100090009BB181E089278BB92FEF83ED90E321504D
:1000A00080409040E1F700C000009F918F912F9118
:1000B0000F900FBE0F901F90189552985A9A509A11
:1000C00080916900826080936900E89A7894FFCFFC
:0400D000F894FFCFD2
:00000001FF
